:1000000000800020BD0100005119000051190000BE
:100010005119000051190000511900001D1900006C
:100020001D1900001D1900001D19000051190000C4
:10003000511900001D190000511900000D19000090
:100040005119000051190000511900005119000008
:1000500051190000511900005119000051190000F8
:1000600051190000511900005119000051190000E8
:1000700051190000511900005119000051190000D8
:1000800051190000511900005119000051190000C8
:1000900051190000511900005119000051190000B8
:1000A00051190000511900005119000051190000A8
:1000B0005119000051190000511900005119000098
:1000C0005119000051190000511900005119000088
:1000D0005119000051190000511900005119000078
:1000E0005119000051190000511900005119000068
:1000F00051190000451D000051190000C1210000E8
:10010000511900007125000051190000511900001B
:100110005119000051190000511900005119000037
:100120005119000051190000511900005119000027
:100130005119000051190000511900005119000017
:100140005119000051190000511900005119000007
:1001500051190000511900005119000051190000F7
:1001600051190000A90B000051190000511900009D
:1001700051190000511900005119000051190000D7
:1001800051190000511900005119000051190000C7
:1001900051190000511900005119000045060000D6
:1001A000950600001D070000D90700005D0800004B
:1001B000511900005119000051190000544B4CF224
:1001C000205210B51A804DF628121A8000BF00BFC9
:1001D00001F0C2FB4F4B4FF010621A604E4A9A601A
:1001E0004E4ADA604E4B1A6812F4807204D14D49BF
:1001F0000A604FF4A8521A604B4B1A7802F00802BA
:10020000D2B21AB11A7842F008021A70474B484825
:10021000484C2A221A700023474A02E01959995083
:10022000043399188142F9D3444B454A002101E037
:1002300043F8041B9342FBD34249434800231A5816
:100240005A500433B3F5DE7FF9D1404B404A802148
:1002500003F8011B9342FBD13A4A3E4B1A603E4BD6
:100260000A221A703D4B24221A70A02203F8012C96
:100270003B4A137803F00203DBB2002BF9D0384A73
:10028000137803F01003DBB2002BF9D1344A137852
:1002900003F00C03082BFAD1324B03221A704022D0
:1002A0005A702F4A137803F02003DBB2002BF9D0E9
:1002B0002B4A137803F04003DBB2002BF9D02A4B12
:1002C0002A4A1A6002225A60294B20221A70244AB4
:1002D000137803F00C030C2BFAD1264A264B1A6034
:1002E000264B274A1A60072243F8042C62B600F016
:1002F0004DFB0C4B1B68DC0702D5224800F0C6FA08
:1003000002F034FB01F02EFB02F016FBFEE700BF0B
:100310000E20054030800440823F04000100002B85
:1003200010D0034014D0034002D0074000E0074043
:10033000C08CFF1F682D0000C08AFF1FC08CFF1FEC
:100340005090FF1F0082FF1F0000000000E400E04B
:100350005FE400E008ED00E0005006400140064088
:10036000064006400440064044800440000003016B
:1003700000400640C01005000480044014E000E086
:10038000FF760100F3357C54FFFFFFFFFFFFFFFF07
:10039000FFFFFFFFFFFFFFFFFFFFFFFFFFFFFFFF6D
:1003A000FFFFFFFFFFFFFFFFFFFFFFFFFFFFFFFF5D
:1003B000FFFFFFFFFFFFFFFFFFFFFFFFFFFFFFFF4D
:1003C000FFFFFFFFFFFFFFFFFFFFFFFFFFFFFFFF3D
:1003D000FFFFFFFFFFFFFFFFFFFFFFFFFFFFFFFF2D
:1003E000FFFFFFFFFFFFFFFFFFFFFFFFFFFFFFFF1D
:1003F000FFFFFFFFFFFFFFFFFFFFFFFFFFFFFFFF0D
:10040000FFFFFFFFFFFFFFFFFFFFFFFFFEFFFFFFFD
:1004100008B548F6C040074BC1F6FF701B1A062B03
:1004200000D808BD40F20003C0F20003002BF8D052
:100430009847F6E7C38CFF1F08B548F6C04048F65A
:10044000C043C1F6FF70C1F6FF731B1A9B1003EB8C
:10045000D373591000D108BD40F20002C0F200026F
:10046000002AF8D09047F6E710B548F6C044C1F628
:10047000FF74237873B9FFF7CBFF40F20003C0F29B
:1004800000032BB142F66850C0F20000AFF30080C9
:100490000123237010BD00BF08B540F20003C0F275
:1004A00000034BB142F6685048F6C441C0F2000068
:1004B000C1F6FF71AFF3008048F6C040C1F6FF708F
:1004C00003682BB140F20003C0F2000303B1984768
:1004D000BDE80840B0E700BF38B5044608460D4601
:1004E00000F075F8236802465B6820462946984765
:1004F00038BD08B544F2280000F0C4FFBDE808404C
:1005000000F078BF08B548F2080000F0BBFF44F2E5
:10051000150000F0B7FFBDE8084000F06BBFFFFF1B
:1005200010B54FF4FA70224C00F01AFAFFF7EAFF08
:100530004FF4FA7000F014FA1E492046FFF7CCFF82
:100540004FF4FA7000F00CFAFFF7D3FF4FF47A7013
:1005500000F006FA18492046FFF7BEFFFFF7C9FF73
:100560004FF47A7000F0FCF914492046FFF7B4FF0D
:10057000FFF7BFFF12492046FFF7AEFFFFF7B9FFB5
:100580004FF47A7000F0ECF90E492046FFF7A4FF13
:10059000FFF7AFFFFFF7B6FFFA2000F0E1F92046C2
:1005A0000949FFF799FFBDE81040FFF7A2BF00BF60
:1005B000848EFF1FC4290000D7290000DC29000019
:1005C000E1290000F0290000E52900007047002320
:1005D00000E00133C25C002AFBD11846704710B519
:1005E0000023B0FBF2F402FB1400092801D83030DC
:1005F00000E03730C85420460CB10133F1E7CA1887
:100600005470224605E0885CCC5C8C54C85401329E
:10061000013B9A42F7DB084610BDFFFF084B4FF441
:1006200000021A604FF080721A604FF000721A6078
:100630004FF080621A604FF000621A60704700BF8E
:1006400008E100E0114B10B51C68E0041C6004D503
:100650000F4BDA680AB1DB689847A10404D50C4B4C
:100660001A690AB11B699847A20604D5084B1A6E8D
:100670000AB11B6E9847E30606D5054BD3F88420D4
:1006800012B1D3F88430984710BD00BFA090044049
:10069000DC8CFF1F1F4B10B51C68E0031C6004D5E9
:1006A0001D4B1A680AB11B689847A10304D51A4B61
:1006B0005A680AB15B689847E20704D5164B1A6C72
:1006C0000AB11B6C9847A30704D5134B5A6C0AB1A7
:1006D0005B6C9847200704D50F4B9A6C0AB19B6C52
:1006E0009847610704D50C4BDA6C0AB1DB6C98476C
:1006F000220304D5084B5A6E0AB15B6E9847630318
:1007000006D5054BD3F8802012B1D3F88030984736
:1007100010BD00BFA0A00440DC8CFF1F2C4B10B507
:100720001C6820071C6004D52A4B5A6A0AB15B6A10
:100730009847E10604D5274B9A6A0AB19B6A984705
:10074000620604D5234BDA6A0AB1DB6A98472306AE
:1007500004D5204B1A6B0AB11B6B9847A00604D531
:100760001C4B5A6B0AB15B6B9847E10704D5194BD8
:10077000DA6B0AB1DB6B9847A20704D5154B9A6D6B
:100780000AB19B6D9847630704D5124BDA6D0AB125
:10079000DB6D9847A00504D50E4BDA6E0AB1DB6E0F
:1007A0009847E10504D50B4B1A6F0AB11B6F9847A8
:1007B000620504D5074B5A6F0AB15B6F9847230552
:1007C00004D5044B9A6F0AB19B6F984710BD00BFC8
:1007D000A0B00440DC8CFF1F1E4B10B51C68E00766
:1007E0001C6004D51C4B9A680AB19B689847210687
:1007F00004D5194B5A690AB15B699847E20604D5DA
:10080000154B9A690AB19B699847630704D5124B47
:10081000DA690AB1DB699847200704D50E4B1A6ADA
:100820000AB11B6A9847A10704D50B4B9A6B0AB112
:100830009B6B9847A20604D5074B1A6D0AB11B6D36
:100840009847630604D5044B5A6D0AB15B6D98470F
:1008500010BD00BFA0C00440DC8CFF1F094B10B5C9
:100860001C68A2071C6004D5074B9A6E0AB19B6EE8
:100870009847E30704D5044BDA6F0AB1DB6F98475A
:1008800010BD00BFA0D00440DC8CFF1F044B054905
:1008900000221A600A60044A106010221A60704731
:1008A00014D0034004D0034000D00340212810B5E9
:1008B00018D80D4A52F8303093F880423CB10122EA
:1008C00011B183F8802010BD83F8002110BD02EB28
:1008D000C00043681A6811B142F0030201E022F03F
:1008E00002021A6010BD00BFF8290000212816D8A6
:1008F0000B4A02EBC00301295B6852F8302004D197
:1009000082F880124FF4A27208E0002082F8800280
:1009100011B94FF4807201E040F203121A6070477F
:10092000F829000072B60B4B0B491A680B4B1B6879
:10093000096862B6490102D5322A88BF0133C2F57F
:10094000BB32FF326021B2FBF1F24FF47A7000FB50
:100950000320704718E000E004ED00E0648DFF1F05
:1009600070B50446FFF7DEFF05466CB140F2E7368E
:10097000FFF7D8FF401BB04203D9013C04D005F576
:100980007A7500F043FFF3E770BDFFFF10B5FFF786
:1009900045FE164B164A174C00204BF6FF711860A7
:1009A000596028231360936013619361136293620B
:1009B00013639363092222600F4C20606160A3607F
:1009C000236144F8042C0D4C20600D4801600D4952
:1009D0000B608B600C4B1A6000F038FF0420FFF7AF
:1009E000BFFFBDE8104000F003BC00BF048003401F
:1009F0000C800340008003400490034004800B40BF
:100A000008800B400C800B4000800B40F0B50C4B75
:100A10000C4C1A7842F0020504EBC50682F0010284
:100A2000706009481A700678002E0CBF8827C82706
:100A300047EA014186F0010644F835100670F0BD22
:100A4000DC8DFF1F0080FF1F5C8EFF1F431E042BE9
:100A500010B510D872B6094A52F8230048B141685F
:100A600042F82310064A018832F81340611A22F82E
:100A7000131062B610BD002010BD00BFC88DFF1F4F
:100A80004490FF1F013804280BD872B6064B53F868
:100A90002030002001E05B680130002BFBD162B602
:100AA00070470020704700BF208EFF1F70B572B6E0
:100AB000184E194C01239A1912F8012C02F0080261
:100AC000D2B2E2B19900144A54F831502DB902EB78
:100AD000431308305860114B09E041F0010154F80C
:100AE000315065B902EBC103083058600C4B42F835
:100AF00031300C4B1A78013A1A7062B670BD01336E
:100B0000062BD8D162B6074B00221A70BDE87040A0
:100B100000F000BD982B00000080FF1F88004000FF
:100B2000C8004000528EFF1F431E042B30B532D840
:100B30004001194A40F01000101872B6174CE25CE0
:100B4000032A09D8DFE802F016021805083002224D
:100B500013E00830042210E01148124A50F82340F4
:100B600014B940F8231002E052F82300416042F823
:100B700023100FE0032200E00522E25410F0080FDA
:100B800001F108030A8843600CBF8823C82343EAA5
:100B90000243036062B630BD0080FF1F808DFF1FDF
:100BA000208EFF1F348EFF1F2DE9F74FA34EA44C5C
:100BB000357805F00403DBB2ABB1A24B1B7883B1EF
:100BC000A14A137823B1013BDBB2137003B900BE15
:100BD0009E4A13782BB1013BDBB213700BB900F0C6
:100BE000CBFD0423337005F00802D2B2002A00F0D6
:100BF0008582974B1B781D094FEA930940F00382C9
:100C000054F8392004EBC903C2F38302013A5B684C
:100C10000C2A00F2F581DFE812F0A001A001F30137
:100C2000F301F301F301F301F301CA01F301F3014D
:100C3000F3010D001A6887495B68874D4B60874B4D
:100C40000A6044F83930864B0020186001232B706D
:100C500092B240F28165AA422061A06117D8B2F534
:100C6000D06F80F02881B2F5817F00F0D58006D862
:100C7000802A00F0BB80822A40F03581BAE040F241
:100C800002339A4200F00881B2F5A06F10E0B2F58D
:100C9000106F10D004D8B2F5086F40F02481A0E0A6
:100CA00040F621139A4200F0558103F580739A4271
:100CB00040F019811BE18A78624B614D1A702B6AF2
:100CC000180603D5686A083800F024FC6549083521
:100CD0008D42F4D1DFF8B491DFF8B4B10025A84615
:100CE000CA4655F8090005E04368009300F012FC7D
:100CF000009B18460028F7D15B4B4AF8050045F8E1
:100D00000B00E85807E042680093019200F002FCF3
:100D1000019A009B10460028F5D15851534BE850DA
:100D2000534B23F81800534B18F80320023A032AB8
:100D300008D8DFE802F002040204002200E00122E9
:100D400003F8082008F101080435B8F1050FC8D1EF
:100D5000494BDFF8409100221A7001259846474B15
:100D600005EB0902EB1812F8012C9B001A7002F037
:100D70000802D2B23AB300F0AFFBAB0038B104EBDB
:100D80004512083050603E4A44F8332006E044F8EB
:100D9000330098F80030013388F8003000F09CFBF5
:100DA000AB0043F0010338B104EBC30208305060DC
:100DB0002A4A44F8332006E044F8330098F800301B
:100DC000013388F80030AA0042F00201013542F0F8
:100DD00003020023062D44F8313044F83230BED1EE
:100DE00029E0184A274D12782A7083E0254D287093
:100DF00068707EE08A88052A00D974E09100224A52
:100E0000204D8A1828706870127802F00202D2B25F
:100E1000002A6ED02B706CE08A8802F07F03052BCD
:100E200061DC4B8803B15EE09100174A8A181178A3
:100E300021F0020111701D465CE000BF80200740D8
:100E40000080FF1F5B8EFF1FDD8DFF1F808EFF1F49
:100E500090200740488EFF1F5C8EFF1FC800400097
:100E6000688DFF1FA080FF1F208EFF1F348EFF1F85
:100E70004490FF1F808DFF1F528EFF1F30C801104E
:100E800088004000538EFF1FC0200740C88DFF1F01
:100E90006C8DFF1F982B00008A8802F07F03052BC2
:100EA00021DC4B8803B11EE09100A54A8A18117815
:100EB00041F00201BEE74A88A24B898853F8085CDA
:100EC000A3F10C007DB133F80CCC944509D133F873
:100ED0000ACC8C4505D1120A032A0CBF2B78038952
:100EE00008E00C33EAE7964B0F221A7032E0002339
:100EF000A1E70223944AB2F806904B4538BF9946C1
:100F0000B9F1400F34BFC8464FF04008284641466B
:100F1000FFF77CFDB9EB0809454403D1B8F1400F58
:100F200007D017E0B9F1400F34BFC8464FF0400872
:100F300000E0C84628464146FFF768FDB9EB0809BE
:100F4000454402D1B8F1400F04D1804B804A1D6066
:100F5000A2F8009001227F4B51E07B4A7E48116845
:100F6000814206D15268B2F5803F1CD11A787B4B82
:100F700014E07B48814216D151687A4A914212D1DD
:100F80001A78A92A0FD15A78452A0CD19A78C22A00
:100F900009D1DB786B2B06D1734B052200201A7028
:100FA0000146FFF733FD714B44F8393028E0674BB9
:100FB000D3F80080B8F1000F18D0DFF89491B9F899
:100FC00000A0BAF1400F34BF55464025404629469F
:100FD000FFF71CFDC5EB0A039BB2A9F800300BB963
:100FE000402D01D108EB0503584A1360564B1A886F
:100FF000B2F5A06F04D100225A709A785C4B1A7037
:101000000122544B6DE004EBC90803F00803D8F843
:101010000420013DD9B2A2F10800EDB2002937D079
:1010200000F078FA5348544B50F82510F1B14A6853
:1010300040F8252001F10802C8F804205A5D032A6F
:101040000BD8DFE802F002040608032204E00222C3
:1010500002E0052200E004225A5518F0080F0A8821
:101060000CBF8823C82343EA024342E05A5D032AA7
:1010700007D8DFE802F040400204002206E0012227
:1010800004E018F0080F0CBF022203225A5532E088
:1010900054F839301B0C22F8083C23B322F8061C04
:1010A00042F8041C354A364952F8257017B942F8FF
:1010B000250002E051F825205060324A41F8250011
:1010C00032F815105B1822F8153000F005FA18B147
:1010D0000830C8F8040006E02B4B44F839001A78B1
:1010E00001321A7007E0214B284A18F0080F08BF98
:1010F000134644F839300823337059E5E90755D5CC
:1011000014492248224C02230B70224B1A70224BA6
:101110001860986021481A61D8609A615C60084B39
:101120000D2018701E48FF23037000F8083C02745D
:101130001C4A13701C4B9F221A7001230B704EE047
:10114000C0200740AC2B0000488EFF1F688DFF1F9A
:10115000508EFF1F94200740210900026F8EFF1F51
:101160002109000302000400DD8DFF1FC8004000BC
:1011700098200740208EFF1F808DFF1FC88DFF1F06
:101180006C8DFF1F4490FF1F528EFF1F8800400090
:10119000888DFF1FDC8DFF1F0080FF1FE08DFF1F6C
:1011A000882007408C200740842007402B0605D567
:1011B0000C4B0D221A70802203F8402C05F002031C
:1011C000DBB22BB1084B1A781A70022203F8082CF4
:1011D00005F01005EDB215B1044B10221A70BDE8F0
:1011E000FE8F00BFC02007408820074080200740B6
:1011F00008B501F013FA00231E491A465A50C818C0
:101200000833A82B4260F9D11B4B1A6842F48022A4
:101210001A601A4B80221A701978184A0906FBD4F2
:10122000144B1749C3F307200870C3F307401B0E84
:1012300008750B76FF2301F81C3C01F8143C01F8FB
:101240008C3C137843F0400313700021012302F813
:10125000783C02F80C1C02F8883C0A4B70226FF4B0
:10126000507C1A7063444FF400721A60064B1022CF
:101270001A7008BD0080FF1F348004400C21074015
:101280009C20074049E400E0082107401F2808D8B7
:101290000A2804D00B280CBF2B20002070472820E0
:1012A00070477F2804D8034B181810F8200C70479B
:1012B00000207047382B000070B5194D194E47F2C9
:1012C00069442B784BB30320FFF7DCFB032802D9DA
:1012D000013C06D107E000F0FFF801460028F7D0F6
:1012E00008E033781BB10F4B01221A7015E000F0B3
:1012F0008DFAE6E70C4B1B7803720C4B1B7843729C
:101300000B4B1A689B88C0F80A20C381082303800E
:101310000320FFF709FC002070BD4FF0FF3070BDC7
:101320005B8EFF1F6E8EFF1F6C8EFF1F6D8EFF1F6B
:10133000668EFF1F38B50A4C0A4D207000232970B5
:101340006370A370E37023716371FFF7B5FF28B971
:1013500028702070BDE83840FFF7AEBF38BD00BF31
:10136000668EFF1F6C8EFF1F08B5FFF78FFF60B101
:1013700000F04001C9B200F03F00002914BF022173
:101380000021BDE80840FFF7D5BF08BD10F0800F71
:10139000164B02D100221A600BE0BF2812D8196840
:1013A000012900F03F0206D100211960104B188876
:1013B0001043FFF7D9BF022916D10D49088840EA2A
:1013C000821205E0DF2806D800F01F0208499201CA
:1013D0000A80012207E0EF2804D8054902030A80A9
:1013E000022200E0FF221A60704700BF608EFF1FDC
:1013F000648EFF1F10B50B4B0021187819700A4B33
:101400001A781970094B0243981D5C7803F8011F84
:10141000834242EA0402F8D11AB1BDE81040FFF756
:101420004BBF10BD6C8EFF1F6D8EFF1F658EFF1FA3
:1014300010B551B1114B1A7801EA02048C4203D065
:1014400011431970012100E0002188B10C4C0023E8
:101450001A5D82420A4A0BD00133062BF8D10023D1
:10146000D45C14B9064AD05403E00133062BF7D1FB
:1014700019B1BDE81040FFF71FBF10BD6C8EFF1FF4
:10148000668EFF1F020A08B5D3B2014603F13E0083
:10149000C0B21D2804D802F01F0262F39F1109E0B8
:1014A000802B02D10020C9B211E0402B02D1C8B27A
:1014B00000210CE00846FFF7E9FE60B100F04001B2
:1014C000C9B200F03F00002914BF02210021BDE88D
:1014D0000840FFF7ADBF08BD72B60C4A1168B1FAFB
:1014E00081F3172B02D962B6002070474FF00040FD
:1014F00020FA03F021EA0001116062B60449482293
:101500005343C8180022CA5042607047C08AFF1F68
:101510000084FF1F0C4B4822C31AB3FBF2F3172BB6
:1015200011D80A4A127822B1094A12780AB1FFF793
:10153000BDBA72B6074A4FF0004121FA03F31168B1
:101540001943116062B670470084FF1F528EFF1F5F
:101550005B8EFF1FC08AFF1FF8B5124D124E2F463B
:101560003378DBB12B681BB90220FFF76FFA2860D4
:10157000386898B14388C218147A5CB10288013384
:10158000934205D3FFF7C6FF064B00221A6007E01F
:10159000438005E0FFF7BEFF2C60E1E74FF0FF342A
:1015A0002046F8BD7C8EFF1F5B8EFF1FF8B50C4DEB
:1015B0000C4E2F4633787BB12B681BB90220FFF706
:1015C00045FA2860386838B14388C3181C7A2CB9AA
:1015D000FFF7A0FF2C60EDE74FF0FF342046F8BD89
:1015E0007C8EFF1F5B8EFF1F38B5124C236833B112
:1015F000104B1868438802880024C51810E00E4B71
:101600001B781BB10220FFF721FA20602468002C10
:10161000EED10DE02919097A09B94CB904E0013479
:10162000E1189142F6DBF8E7FFF774FF014B1C600D
:10163000204638BD7C8EFF1F5B8EFF1F2DE9F843CF
:10164000314B324DDFF8D09001220C461A7006461D
:1016500053E02B685BBB2C4F44F2D95899F800300B
:1016600013B9294A137018E00120FFF70BFA052877
:1016700004D9B8F10108264A08D109E001233B70DA
:10168000FFF72AFF28600028F3D010E0137843B159
:10169000012313701C4B00221A704FF0FF30BDE87D
:1016A000F8833B7000F0B2F801233B70D6E729685D
:1016B000174A488800231370C0F14002944238BF93
:1016C000224600F108078018CF194880A41A02E0CA
:1016D000F05CF85401339342FAD1F6184B883F2B53
:1016E0000C4B02D805221A7007E040220A8000271E
:1016F00001201F70FFF718FA2F60002CA9D1024BB0
:1017000020461C70BDE8F883708EFF1F748EFF1F8B
:10171000788EFF1F808EFF1F5B8EFF1F07B502AB09
:10172000012103F8010D1846FFF788FF0EBDFFFFEA
:1017300038B50E4B1B78C3B10D4B1968A9B14A8857
:101740009AB10C48002303708C181D4602E0E01883
:101750000133057298183F28F9DD40230B800120E2
:10176000FFF7E2F9024B00221A6038BD5B8EFF1FC3
:10177000748EFF1F808EFF1F38B50C4B1B789BB9F2
:101780000B4A11684A881D468C1802E0E0180133A4
:10179000057298183F28F9DD40230B800120FFF7E0
:1017A000C3F9034B00221A6038BD00BF708EFF1FC3
:1017B000748EFF1F084608B5FFF7E8FD012008BD3D
:1017C00008461146FFF73ABF0846FFF7A7BFFFF7E5
:1017D000AFBFFFF7EBBEFFF7BFBEFFF705BF704718
:1017E000064B074900221A711960064B1A711A73C9
:1017F000054A4FF47A7199601A607047848EFF1F12
:10180000102B00008C8EFF1F202B000008B50E4B04
:101810001A78C2B901221A70FFF7E6FE08B1FFF785
:10182000DEFF00F037FA08B100F092FF00F070FC24
:1018300008B100F0FFFF00F055FE08B101F06CF8B0
:10184000014B00221A7008BD9C8EFF1F224B6022A4
:101850001A70E1225A70214B214A1978214B08292C
:1018600001D1012102E00A2907D139211160132297
:101870001A601D4B19605A600BE00C291A4901D1FE
:10188000352000E03D20106012221A60174B0860DE
:101890001A60174B17491B78174A03B101230B60D5
:1018A0001360164B164A1978164B012901D880216E
:1018B0000CE0042901D8842108E0082901D88521F9
:1018C00004E0102901D8862100E087211160196009
:1018D0000D4B01221A70704700400740C48AFF1F59
:1018E00008B003400CB0034008B00B400CB00B40F4
:1018F0009E8EFF1F20B0034020B00B40C58AFF1F03
:1019000024B0034024B00B409D8EFF1F024B1A6889
:1019100001321A60704700BF648DFF1F38B50B4C51
:1019200025462368580301D5FFF73EF92B68590572
:1019300001D500F007FA2B681A0501D500F040FC2C
:101940002368DB04EDD500F013FEEAE734800440A1
:1019500008B5FFF7E3FFFFFF014B10221A80704725
:10196000002005407047FFFFEFF313839BB9EFF3AF
:10197000108098B9EFF3058323B10F2B04D9084ADF
:10198000985C01E04FF48070EFF311833BB1984213
:1019900028BF184670474FF0FF3070471846704711
:1019A000F0E300E0194B1A6842F480621A60184AAA
:1019B00000231370174A1370174A1370174A1370D5
:1019C000174A1370174B40F213321A604FF45172DA
:1019D0005A60154BC0F344321A70C0F347125A7064
:1019E0000221042200F01F0098729A70D9745A756F
:1019F00088221A743C22DA700C4B40226FF44A7130
:101A00001A705B184FF400521A607047348004401B
:101A1000218FFF1FA08EFF1F288FFF1F228FFF1F08
:101A20009F8EFF1F40A0044000A006402DE400E070
:101A3000134A937800F0030103F0EC030B434107D2
:101A400048BF43F01003937000F00F03042B0C49C0
:101A500003D18B7943F040038B715379C20603F0B5
:101A6000EF03074A48BF43F0100353719379800690
:101A700003F0EF0348BF43F010039371704700BFBA
:101A800000A006400E4B1B68580510B503D410BDCE
:101A9000FFF7BCFE00E00B4C2378002BF8D10A4A7C
:101AA0004FF400511160094A0949D37040F2031202
:101AB0000A604A60074A1370074A137010BD00BFDE
:101AC000348004409F8EFF1F84E100E000A00640A8
:101AD00040A00440218FFF1FA08EFF1F38B5094B87
:101AE00004461D78002DFCD120460121FEF7FEFEA4
:101AF00020462946FEF7DAFE034B53F83420034B09
:101B00001A6038BD9F8EFF1FF8290000248FFF1F29
:101B10001D4B1B685A052DE9F041074631D51B4B7B
:101B20001B680BB101221A70194B1A4D1C781A4E02
:101B3000DFF8688001343F2C88BF002414E0FFF7F1
:101B400013FF40280CDC33791B060DD52B780133AD
:101B50003F2B88BF002318F80320F2712B7003E09D
:101B6000FF2801DDFFF752FE2B78A342E7D00B4B95
:101B70001F550B4B01221A70054B1C70064BBC22E3
:101B8000DA70BDE8F08100BF34800440248FFF1F6D
:101B9000288FFF1F228FFF1F00A00640A18EFF1F6E
:101BA0009F8EFF1F2DE9F84F254B1B6806465805F1
:101BB000894642D5234B1B680BB101221A70224D76
:101BC000B346AA4632E0214B1C782F7801343F2CD3
:101BD00088BF0024A74209D01BF8012B1C4B1A55C3
:101BE0001C4B01221A70194B1C701FE01A4BBC22AF
:101BF000DA709846FFF7B8FE40280FDC98F80430FA
:101C000019060FD52B78124A01333F2B88BF0023CA
:101C1000D25C88F807208AF8003003E0FF2801DD55
:101C2000FFF7F4FD2B78BB42E4D0D5E706EB0903C0
:101C30009B45C8D3084BBC22DA70BDE8F88F00BFC3
:101C400034800440248FFF1F228FFF1F288FFF1F27
:101C5000A18EFF1F9F8EFF1F00A0064010B5044CF1
:101C600001E0FFF7D3FD2378002BFAD110BD00BFB0
:101C70009F8EFF1F054B064A1B781078834201D3C5
:101C80003F3000E00138C01A704700BF288FFF1FA7
:101C9000228FFF1F044B1878044B1B78984238BFE3
:101CA0004030C01A704700BF218FFF1FA08EFF1F5A
:101CB000084B094A19781378994207D001333F2B12
:101CC00088BF00230549C85C137070474FF0FF3090
:101CD000704700BF218FFF1FA08EFF1FE18EFF1FE7
:101CE000074B1A78074B1B789A4206D001333F2BDB
:101CF00088BF0023044AD05C70474FF0FF30704724
:101D0000218FFF1FA08EFF1FE18EFF1F094B1B6855
:101D10005B050ED5084BDA7802F0CB02DA70402270
:101D20005A74DA7842F03402DA70044B1A78044BB1
:101D30001A7070473480044000A00640A08EFF1F38
:101D4000218FFF1F70B52D4B1A7912F0300F1DD067
:101D500072B6997D21B9DA7940225A7462B615E0DB
:101D600062B6274A27481278274D00781C46531C34
:101D70003F2B88BF0023E67983421CBFEE541A46EE
:101D8000013911F0FF01F2D11D4B1A701B4AD378B3
:101D900019465BB2002B1BDA1379180618D51B4BBA
:101DA0001B4C1D781B4B1B78AB4209D001333F2BDA
:101DB00088BF00231079E05CD071107D0728F3D92B
:101DC000144A13700D4B1A79120601D57C22DA7071
:101DD00001F04003DBB27BB1084B1A7902F04002FC
:101DE000D2B2194642B10C4B00221A700B4B1B6841
:101DF00003B11A703C23CB7070BD00BF00A0064039
:101E0000218FFF1FA08EFF1FE18EFF1F288FFF1F56
:101E1000A18EFF1F228FFF1F9F8EFF1F248FFF1F8A
:101E2000184B1A6842F400621A60174A00231370B4
:101E3000164A1370164A1370164A1370164A137016
:101E4000164B40F213321A604FF451725A60144B21
:101E5000C0F344321A70C0F347125A7000F01F00EA
:101E60000422022198729A70D9745A7588221A74C1
:101E70003C22DA700B4B40221A700B4B4FF400429D
:101E80001A60704734800440938FFF1F2A8FFF1F12
:101E90009C8FFF1F948FFF1F298FFF1F0CB00440E2
:101EA00000B006402FE400E004E100E0134A93781C
:101EB00000F0030103F0EC030B43410748BF43F07C
:101EC0001003937000F00F03042B0C4903D18B799E
:101ED00043F040038B715379C20603F0EF03074AC6
:101EE00048BF43F0100353719379810603F0EF0369
:101EF00048BF43F010039371704700BF00B0064025
:101F00000E4B1B68180510B503D410BDFFF77EFCFF
:101F100000E00B4C2378002BF8D10A4A4FF4004123
:101F20001160094A0949D37040F203120A604A60FD
:101F3000074A1370074A137010BD00BF3480044075
:101F4000298FFF1F84E100E000B006400CB0044080
:101F5000938FFF1F2A8FFF1F38B5094B04461D784A
:101F6000002DFCD120460121FEF7C0FC2046294669
:101F7000FEF79CFC034B53F83420034B1A6038BD2A
:101F8000298FFF1FF8290000988FFF1F1D4B1B682A
:101F90001A052DE9F041074631D51B4B1B680BB1E3
:101FA00001221A70194B1A4D1C781A4EDFF86880FE
:101FB0000134272C88BF002414E0FFF7D5FC40280B
:101FC0000CDC33791B060DD52B780133272B88BF0A
:101FD000002318F80320F2712B7003E0FF2801DDC5
:101FE000FFF714FC2B78A342E7D00B4B1F550B4B8C
:101FF00001221A70054B1C70064BBC22DA70BDE83A
:10200000F08100BF34800440988FFF1F9C8FFF1F1A
:10201000948FFF1F00B006402B8FFF1F298FFF1FDB
:102020002DE9F84F254B1B6806461805894642D511
:10203000234B1B680BB101221A70224DB346AA46EE
:1020400032E0214B1C782F780134272C88BF0024E4
:10205000A74209D01BF8012B1C4B1A551C4B01221F
:102060001A70194B1C701FE01A4BBC22DA7098468C
:10207000FFF77AFC40280FDC98F8043019060FD5DA
:102080002B78124A0133272B88BF0023D25C88F8B3
:1020900007208AF8003003E0FF2801DDFFF7B6FBD8
:1020A0002B78BB42E4D0D5E706EB09039B45C8D3A8
:1020B000084BBC22DA70BDE8F88F00BF34800440C2
:1020C000988FFF1F948FFF1F9C8FFF1F2B8FFF1F69
:1020D000298FFF1F00B0064010B5044C01E0FFF748
:1020E00095FB2378002BFAD110BD00BF298FFF1F6D
:1020F000054B064A1B781078834201D3273000E055
:102100000138C01A704700BF9C8FFF1F948FFF1FBC
:10211000044B1878044B1B78984238BF4030C01AE3
:10212000704700BF938FFF1F2A8FFF1F084B094A7C
:1021300019781378994207D001333F2B88BF0023C9
:102140000549C85C137070474FF0FF30704700BFFF
:10215000938FFF1F2A8FFF1F538FFF1F074B1A7884
:10216000074B1B789A4206D001333F2B88BF0023D0
:10217000044AD05C70474FF0FF307047938FFF1FC9
:102180002A8FFF1F538FFF1F094B1B681B050ED59E
:10219000084BDA7802F0CB02DA7040225A74DA780F
:1021A00042F03402DA70044B1A78044B1A7070470C
:1021B0003480044000B006402A8FFF1F938FFF1F1A
:1021C00070B52D4B1A7912F0300F1DD072B6997D73
:1021D00021B9DA7940225A7462B615E062B6274A0C
:1021E00027481278274D00781C46531C3F2B88BF88
:1021F0000023E67983421CBFEE541A46013911F0E0
:10220000FF01F2D11D4B1A701B4AD37819465BB2FD
:10221000002B1BDA1379180618D51B4B1B4C1D78A5
:102220001B4B1B78AB4209D00133272B88BF0023FF
:102230001079E05CD071107D0728F3D9144A13702F
:102240000D4B1A79120601D57C22DA7001F0400399
:10225000DBB27BB1084B1A7902F04002D2B21946C8
:1022600042B10C4B00221A700B4B1B6803B11A7061
:102270003C23CB7070BD00BF00B00640938FFF1FA2
:102280002A8FFF1F538FFF1F9C8FFF1F2B8FFF1F56
:10229000948FFF1F298FFF1F988FFF1F174B1A68FE
:1022A00042F480521A60164A00231370154A1370C4
:1022B000154A1370154A1370154A1370154A40F2E7
:1022C000133111604FF451715160134AC0F344311E
:1022D0001170C0F3471100F01F005170907293709D
:1022E00013742C23D3700D4B40226FF44B711A7072
:1022F0005B184FF400321A60704700BF348004400E
:102300000790FF1F9E8FFF1F1090FF1F0890FF1F59
:102310009D8FFF1F08C0044000C0064031E400E06C
:10232000134A937800F0030103F0EC030B434107D9
:1023300048BF43F01003937000F00F03042B0C49C7
:1023400003D18B7943F040038B715379C20603F0BC
:10235000EF03074A48BF43F0100353719379800697
:1023600003F0EF0348BF43F010039371704700BFC1
:1023700000C006400E4B1B68D80410B503D410BD36
:10238000FFF744FA00E00B4C2378002BF8D10A4AFF
:102390004FF400311160094A0949D37040F2031229
:1023A0000A604A60074A1370074A137010BD00BFE5
:1023B000348004409D8FFF1F84E100E000C0064090
:1023C00008C004400790FF1F9E8FFF1F38B5094BC0
:1023D00004461D78002DFCD120460121FEF786FA27
:1023E00020462946FEF762FA034B53F83420034B8C
:1023F0001A6038BD9D8FFF1FF82900000C90FF1F49
:102400001D4B1B68DA042DE9F041074631D51B4B03
:102410001B680BB101221A70194B1A4D1C781A4E09
:10242000DFF868800134272C88BF002414E0FFF710
:102430009BFA40280CDC33791B060DD52B78013331
:10244000272B88BF002318F80320F2712B7003E0BC
:10245000FF2801DDFFF7DAF92B78A342E7D00B4B19
:102460001F550B4B01221A70054B1C70064BAC22FA
:10247000DA70BDE8F08100BF348004400C90FF1F8B
:102480001090FF1F0890FF1F00C006409F8FFF1F86
:102490009D8FFF1F38B54518044603E014F8010B63
:1024A000FFF7AEFFAC42F9D138BDFFFF10B5044CC9
:1024B00001E0FFF7ABF92378002BFAD110BD00BF84
:1024C0009D8FFF1F054B064A1B781078834201D36E
:1024D000273000E00138C01A704700BF1090FF1F7E
:1024E0000890FF1F044B1878044B1B78984238BFA4
:1024F0004030C01A704700BF0790FF1F9E8FFF1F1C
:10250000084B094A19781378994207D001333F2BB9
:1025100088BF00230549C85C137070474FF0FF3037
:10252000704700BF0790FF1F9E8FFF1FC78FFF1FC1
:10253000074B1A78074B1B789A4206D001333F2B82
:1025400088BF0023044AD05C70474FF0FF307047CB
:102550000790FF1F9E8FFF1FC78FFF1F024B1A7828
:10256000024B1A70704700BF9E8FFF1F0790FF1F1E
:1025700010B5214B1A7902F02002D2B26AB11F4A7B
:10258000D8791F491378097801333F2B88BF00237E
:102590008B4202D01B49C8541370174AD37818468F
:1025A0005BB2002B13DA1379190610D5164B1749B5
:1025B0001C780B789C4202D16C23D37007E0013366
:1025C000272B88BF0023124CE45CD4710B7000F001
:1025D0004003DBB27BB1084B1A7902F04002D2B261
:1025E000194642B10B4B00221A700B4B1B6803B10A
:1025F0001A702C23CB7010BD00C006400790FF1F3F
:102600009E8FFF1FC78FFF1F1090FF1F0890FF1F97
:102610009F8FFF1F9D8FFF1F0C90FF1F1FB572B66E
:10262000154B70221A70154A412111700F2102F8C2
:10263000011C80221A701A781206FCD5104B1868FB
:1026400062B6104B984201D80A23584301A90A22C6
:10265000FDF7C5FF0C48002301AA9A5C2AB100EBE4
:10266000430101330A2B4A80F6D10133064A5B004D
:10267000137005B000BD00BF00000240070002401B
:10268000080002407F969800AA8CFF1F08B50368D7
:10269000C9B21B68984708BD08B50368C9B21B6872
:1026A000984708BD08B50368C9B21B68984708BDBC
:1026B00008B50368C9B21B68984708BD084608B545
:1026C000FFF726FA012008BD084608B5FFF720FAF3
:1026D000012008BD38B508460D46FDF778FF0446D1
:1026E00021462846FFF75EFA204638BD10B5084659
:1026F00014461146FFF756FA204610BDFFF7BABA46
:10270000FFF704BBFFF7AABAFFF7D2BAFFF7E8BAA0
:10271000FFF7C0BA0846FFF7E1B9FFF7B3B94808B9
:1027200000F1376000F5D830B0FBF1F0FFF73AB9AF
:10273000480800F1376010B500F5D830B0FBF1F073
:102740001446FFF72FF92046BDE81040FFF770B997
:102750007047FFFF044B00221A711A73034A4FF4AB
:102760007A7199601A6070471490FF1F602C000006
:1027700008B50368C9B21B68984708BD08B5036867
:10278000C9B21B68984708BD08B50368C9B21B6881
:10279000984708BD08B50368C9B21B68984708BDCB
:1027A000084608B5FFF7F2FB012008BD084608B54A
:1027B000FFF7ECFB012008BD38B508460D46FDF7D4
:1027C00006FF044621462846FFF72AFC204638BD6E
:1027D00010B5084614461146FFF722FC204610BDEE
:1027E000FFF786BCFFF7D0BCFFF776BCFFF79EBCB7
:1027F000FFF7B4BCFFF78CBC0846FFF7ADBBFFF793
:102800007FBB480800F1376000F5D830B0FBF1F02D
:10281000FFF706BB480800F1376010B500F5D83067
:10282000B0FBF1F01446FFF7FBFA2046BDE810407C
:10283000FFF73CBB7047FFFF044B00221A711A736D
:10284000034A4FF47A7199601A6070472490FF1F11
:10285000B02C000008B50368C9B21B68984708BDD2
:1028600008B50368C9B21B68984708BD08B5036876
:10287000C9B21B68984708BD08B50368C9B21B6890
:10288000984708BD084608B5FFF7BAFD012008BD06
:10289000084608B5FFF7B4FD012008BD38B5084665
:1028A0000D46FDF794FE044621462846FFF7F2FD4B
:1028B000204638BD10B5084614461146FFF7EAFD1C
:1028C000204610BDFFF7FEBDFFF748BEFFF7EEBD87
:1028D000FFF716BEFFF72CBEFFF704BE0846FFF752
:1028E00075BDFFF747BD480800F1B76000F55840D7
:1028F000B0FBF1F0FFF7D2BC480800F1B76010B5AB
:1029000000F55840B0FBF1F01446FFF7C7FC204635
:10291000BDE81040FFF704BD7047FFFF044B0022E5
:102920001A711A73034A4FF47A7199601A607047EA
:102930003490FF1F002D000008B5FDF7F1FDFDF7F5
:1029400045FEFEF763FFFAE7F8B506460C468F181A
:10295000002506E0336814F8011B1B6830469847D1
:102960002D18BC42F6D12846F8BDFFFF70B542F6DF
:10297000545642F65455C0F20006C0F20005761BCC
:10298000B61007D0043D002455F8043F01349847A1
:10299000A642F9D142F6685642F65455C0F20006F6
:1029A000C0F20005761B00F0CFF9B61008D0043D48
:1029B000002455F8043F01349847A642F9D170BD70
:1029C00070BD00BF667470203139322E3136382E1A
:1029D0003136332E312000646F646F006469646F98
:1029E0000067657420524541444D452E747874004B
:1029F0007175697400FFFFFF4008FE4340A004406A
:102A00004408FE4344A004400018FE4300C00440B4
:102A10003000FE43309004403400FE4334900440C4
:102A20001C18FE431CC004401018FE4310C0044094
:102A30000818FE4308C004400C18FE430CC00440B4
:102A40000C10FE430CB004401010FE4310B00440C4
:102A50001810FE4318B004401C10FE431CB0044084
:102A60001410FE4314B004400418FE4304C0044094
:102A70000010FE4300B004400008FE4300A00440E4
:102A80000408FE4304A004400C08FE430CA00440CC
:102A90000808FE4308A004401418FE4314C0044074
:102AA0001818FE4318C004400410FE4304B004404C
:102AB0000810FE4308B004401400FE431490044084
:102AC0004C08FE434CA004400420FE4304D00440C4
:102AD0002410FE4324B004402010FE4320B00440E4
:102AE0002810FE4328B004402C10FE432CB00440B4
:102AF0000020FE4300D004404808FE4348A00440A4
:102B00001000FE4310900440000000000000000090
:102B1000B517000049290000000000000000000077
:102B2000C9170000C1170000DB170000D71700000D
:102B3000D3170000CF1700002C5E7460616264340C
:102B40006667656E362D3738271E1F202122232405
:102B500025267333762E77785F4445464748494AA1
:102B60004B4C4D4E4F505152535455565758595A3D
:102B70005B5C5D2F3130636D350405060708090A7B
:102B80000B0C0D0E0F101112131415161718191A1D
:102B90001B1C1D6F7170752A1519151515FFFFFF88
:102BA000000100001B8BFF1F12000000000200004C
:102BB000468BFF1F7400000000220200BA8BFF1F2B
:102BC00021000000002102008A8BFF1F0900000085
:102BD00000220000C68AFF1F5500000000210000EF
:102BE000588BFF1F0900000000220100DB8BFF1F34
:102BF0004500000000210100718BFF1F090000004B
:102C000000220300208CFF1F55000000002103005C
:102C1000AA8BFF1F0900000000030000A68CFF1F05
:102C200000000000010309042E8BFF1F00000000BC
:102C300002030904768CFF1F00000000030309044F
:102C4000AA8CFF1F00000000000000000000000030
:102C500000000000FFFFFFFF000000000000000078
:102C6000C9260000ED2600001127000009270000FA
:102C70000D270000052700001F2700003127000056
:102C80001B2700001527000001270000FD2600007B
:102C90008D26000099260000A5260000B126000020
:102CA000D5260000BD260000000000000000000046
:102CB000AD270000D1270000F5270000ED27000018
:102CC000F1270000E9270000032800001528000074
:102CD000FF270000F9270000E5270000E12700009A
:102CE000712700007D27000089270000952700003C
:102CF000B9270000A127000000000000000000002C
:102D000091280000B5280000D9280000D128000033
:102D1000D5280000CD280000E7280000F928000091
:102D2000E3280000DD280000C9280000C5280000B5
:102D300055280000612800006D2800007928000057
:102D40009D28000085280000F8B500BFF8BC08BC2D
:102D50009E46704799040000E117000055270000C7
:082D6000392800001D290000C4
:102D6800FFFFFFFF0A0405010906A1017501950887
:102D7800050719E029E71500250181029508750165
:102D880015002501050C09E909EA09E209CD09B58B
:102D980009B609B709B88102950575010508190131
:102DA800290591029501750391039506750815008B
:102DB800257F05071900297F8100C0120100020044
:102DC800000040C01682040001010203010018033C
:102DD8005400650065006E0073007900640075009A
:102DE80069006E006F0009027400040100C0320916
:102DF800040000010301010009211101000122550D
:102E0800000705830308000109040100010300000D
:102E1800000921110100012245000705850308006A
:102E28000109040200020300000009211101000148
:102E38002221000705810340000107050203200045
:102E48000209040300010300000009211101000127
:102E58002255000705840310000206C9FF0904A1D2
:102E68005C7508150026FF009540097581029520BC
:102E78000976910295040976B102C005010902A1FB
:102E8800018501050919012908150025019508750D
:102E980001810205010930093109381581257F753D
:102EA8000895038106C005010902A10185020501F3
:102EB80009300931150026FF7F751095028102C07F
:102EC80005010904A10115002501750195200509D1
:102ED800190129208102150025073500463B017597
:102EE800049501651405010939814205010901A10B
:102EF80000150026FF03750A9504093009310932C7
:102F080009358102C0150026FF03750A95020936A6
:102F180009368102C00030034B0065007900620069
:102F28006F006100720064002F004D006F00750093
:102F3800730065002F004A006F0079007300740069
:102F4800690063006B00040309040C03000000001F
:102F58000000000000000000000000000000000069
:00000001FF
